:020000041000EA
:1000000000B5324B212058609868022188439860DF
:10001000D860186158612E4B002199600221596106
:100020000121F02299502B49196001219960352056
:1000300000F044F80222904214D00621196600F024
:1000400034F8196E01211966002018661A6600F04E
:100050002CF8196E196E196E052000F02FF8012189
:100060000842F9D1002199601B49196000215960AB
:100070001A491B48016001219960EB211966A021F2
:10008000196600F012F800219960164914480160C1
:100090000121996001BC002800D000471248134993
:1000A000086003C880F30888084703B5996A0420EC
:1000B0000142FBD001200142F8D103BD02B5186610
:1000C0001866FFF7F2FF186E186E02BD00000240BE
:1000D000000000180000070000035F00212200005C
:1000E000F4000018222000A00001001008ED00E03C
:1000F00000000000000000000000000074B24E7A12
:1001000000200420F7010010C3010010C5010010F9
:10011000C1010010C1010010C1010010C101001097
:10012000C1010010C1010010C1010010C701001081
:10013000C1010010C1010010C9010010CB01001065
:10014000CD010010CD010010CD010010CD01001037
:10015000CD010010CD010010CD010010CD01001027
:10016000CD010010CD010010CD010010CD01001017
:10017000CD010010CD010010CD010010CD01001007
:10018000CD010010CD010010CD010010CD010010F7
:10019000CD010010CD010010CD010010CD010010E7
:1001A000CD010010CD010010CD010010CD010010D7
:1001B000CD010010CD010010CD010010CD010010C7
:1001C00000BE00BE00BE00BE00BE00BE00F04BF888
:1001D000103800BEF2EB8871F0F4001018F5001032
:1001E0003402001090A31AE700202149086006C8D5
:1001F00081F3088810471F48006800282FD10DA4FC
:100200000ECC002902D000F012F8F9E71A491B4A77
:10021000002000E001C19142FCD1194988471949E9
:1002200088471949884700BEFDE701C901C29A42C3
:10023000FBD3704718F50010C00000206820002094
:10024000C01401100000042000000420C01401109C
:1002500000100420001004200000000070470B482C
:1002600009F05EFF0047EFF30580C0B27047000061
:1002700008ED00E0000000D068200020A85C00200D
:1002800081730010C9030010A974001057560000B4
:1002900006005250ABB3605344F2001006005250B7
:1002A000861C030254F20010060052505422A29DF4
:1002B00060F2001005005250DE65F468C0140110B1
:1002C000F8B5C0460448054B10B5834203D0044B33
:1002D000002B00D0984710BD682000206820002027
:1002E0000000000006480749091A8910CB0F591869
:1002F00010B5491003D0044B002B00D0984710BD17
:1003000068200020682000200000000010B5074C85
:100310002378002B09D1FFF7D5FF054B002B02D026
:10032000044800E000BF0123237010BD70210020AD
:1003300000000000C8ED0010054B10B5002B03D0E5
:100340000449054800E000BFFFF7CCFF10BDC046E0
:100350000000000074210020C8ED0010F0B50F204F
:1003600085B007F021FB0AF0ABFF03AB02AA01A99D
:10037000134806F0DBFB002803D11149114807F0B0
:1003800095F88026D025760505243700039A029932
:10039000019806F08FFB2D0606F080FC1C2006F06D
:1003A000B9FC6E6264206F6105F05CFF013CAE61D8
:1003B000642005F057FF002CF4D105B0F0BDC04615
:1003C00090D0030050EE0010F0B5DE4657464E4682
:1003D0004546E0B5C3B0FFF7C1FF012000F0DEF8ED
:1003E00000F0C0F900F03EFA802202AF5200002176
:1003F00038000AF05BFD21480AF080FE00230093DC
:100400000133FF333A0050211D480DF0CDFF1D4848
:100410000AF074FE1C480AF071FE42AB9B461B4B6F
:100420003D009A461A4B1B4E99461B4B9846E91BBA
:1004300050460AF039FF0024295D300001340AF0EB
:1004400033FF102CF8D148460AF02EFF0024285D17
:100450000300203B5E2B00D92E2001340AF0FEFD64
:10046000102CF4D1404610350AF048FEAB45DED1E1
:1004700000F02EFA00F02CFAFAE7C046C8ED0010A2
:10048000FC170020DCED0010F0ED00103CEE001039
:100490004CEE001044EE001038EE0010F0B5CE46E1
:1004A000474680B52F4B83B01A78002A31D00022FE
:1004B0002D4D2E4E2E492A600A7032601A702D4B37
:1004C00019682D4B1C682D4B196098462C4B1F78D2
:1004D000FFB2002F2FD0C8231B029C46624432601B
:1004E00001221700A020A740C0058446254BA40187
:1004F000C7502B68644461600A2B30D900233360F5
:100500001B4B1A7000232B6003B00CBC904699461D
:10051000F0BD154D154E2B683268DB07CFD51A4B51
:1005200019681A4B1C68154B19609846144B1F78B4
:10053000FFB2002FCFD1164B9946012348460370D6
:10054000144B1868144B1B680093C8231B0204F05B
:1005500015FE4B461F70434632681968BBE70133EE
:10056000D1E7C046F0160020043F0020F43E0020F2
:10057000A8590020C8590020B45900206C2500203B
:10058000AC5900200C040000B0590020B8590020DC
:10059000AB590020F8160020C4590020F0B5D6460B
:1005A0004F464646C0B505008AB00421002006F03B
:1005B00079FB00240922FA205B4B80001C609C60C0
:1005C000DC601A6107325A600F3A1A60574B0332E7
:1005D0001B6853401B04564A1B0C136005F0DCFCDF
:1005E0001B221A21280000F021FA524805F0D4FC01
:1005F000514F524938680DF05DFC01218246386840
:100600000DF03AFC4E4B102298461B6806A99946FD
:1006100080235B020693F8235B020793C02302A8A2
:100620001B033E68089309940AF046FC5346524661
:100630001633D2011B03134302A9102206A8039309
:100640000AF03AFC3F4B099380239B0208933E4BF0
:10065000F5186B1E9D41063501342900200006F077
:1006600021FB0B2CF8D100234946009330000B33BB
:1006700001220DF01BFD80235B020693524606AB60
:10068000494630000DF056FD0122484613008340D4
:10069000316814000B43336043461868396884405E
:1006A0000B681500A3430B6043001B188020DB0080
:1006B000D033CB1840010343802000061860186037
:1006C000434618680C68031D9D402B00824023435D
:1006D0000B600B681A431D4B0A60186804F0C2FCDB
:1006E00001200DF0ADFE1A4B186001200DF0A8FEA0
:1006F000184B04211860C820C00104F0C9FF164B34
:1007000004211860C8231B029C46144B60441860E7
:10071000C820C00104F0BCFF114B18600AB01CBC1B
:1007200090469946A246F0BD000005400C000540E9
:100730000C100540B80B0000F416002094EE0010D9
:10074000CC5900202080002C0000E0AFF8160020DB
:10075000B4590020B8590020C8590020B0590020D1
:10076000C0590020F0B55746DE4645464E460022A9
:10077000E0B5304B83B000210B201A7006F0E8FA88
:100780002D4B1B689A462D4B1A682D4B141D1D6866
:100790002C4BEF029A4500D0083429262A482B4BCF
:1007A000814638401968B046E4033043284E204360
:1007B000CB02304018430090264801960068A026DE
:1007C0008346F605B4465E460832A80192006044AE
:1007D000524402604660C826B6018660B246009E5A
:1007E0008901066148460340404603431C43019B80
:1007F00061441C40184B27431B680A604B605346FA
:100800008B6001230F611900A940144A0B2011606D
:100810000E4909688B401249136006F0D1FA012194
:100820000B2006F095FA03B03CBC90469946A246D0
:10083000AB46F0BDA8590020F4160020CC5900208A
:10084000B8590020000020502F7800FFB459002034
:10085000FF87FFFFB0590020C85900200424005032
:100860009D04001010B50124134BA0201A681349F1
:100870009440134BC00544509C4680219201624431
:10088000490413680B42FCD18623DB00C4500D4B96
:10089000012219680C4B1868030010339A404B680A
:1008A0001340FCD18000081803614B681A42FCD148
:1008B000064B036110BDC046B4590020440400003B
:1008C0000C000050F4160020CC590020FF57020005
:1008D000F0B5DE4657464E464546E0B589B0394B41
:1008E0001B78002BFBD00023364A1370354B1B7846
:1008F000002BFBD00123344A1370344A1378002BA9
:10090000FCD1334BA027186804F08EFD314B012633
:100910001B68FF00039304AB984642462E4B13CB53
:1009200013C21B6810211360404604F04BFE0023E5
:1009300099462A4B9B462A4B9A4653461B68584673
:100940000093C823039D5B024A462900006804F017
:10095000A1FC0024A0212000490009F037FCA023BD
:10096000811900955B00019701221E4804F052FE98
:10097000A023DB009C46C8234134FF346544DB01DF
:100980009C42E7D1C8235B029C469623E144503643
:100990001B039945D1D11424134D434604214046ED
:1009A000013C1D6004F00EFE002CF6D1064B1C70BD
:1009B000044B1C7009B03CBC90469946A246AB461D
:1009C000F0BDC046A8590020AC590020AB5900200A
:1009D000FC160020C059002084EE0010F8160020FC
:1009E000BC590020EFBEEFBEADDEADDEF0B583B08A
:1009F000D31D14006A46DB08DB00D31A02AF9D4604
:100A0000050002AE002C0BD0220030000AF054FA90
:100A10000023E9B200933200230003480DF056FC96
:100A20000020BD4601B0F0BDFC170020F0B5DE4649
:100A30004E4645465746E0B50E0015008146FE4C31
:100A400085B0FE4920000DF0BDFB0321300006F00B
:100A500029F90321280006F025F94B46012B01D185
:100A600001F00EFD022B01D001F0E8FC002703ADE0
:100A700002AEFD3333802B706F702A00FD3B3021B6
:100A8000009720000DF022FCD4232C225B423380FF
:100A9000D433FF332A706B702A00FD3B302100975E
:100AA00020000DF013FCE64B2E203380DF2328704E
:100AB0006B702A00DD3B3021009720000DF006FC12
:100AC0000122E04B92463380013BFF3B2B706A7062
:100AD000FD3B2A003021009720000DF0F7FB3C2061
:100AE0003222D94B2870338030216A7002232A00C9
:100AF000009720000DF0EAFB11218B461122594688
:100B0000328029706F702A00022330210097200064
:100B10000DF0DCFBCD4B49463380092369702B7007
:100B20002A00073B3021009720000DF0CFFB042264
:100B30002821C74B2A7033802A0069700223302194
:100B4000009720000DF0C2FBC24BE5213380132338
:100B500069702B702A000223B539009720000DF030
:100B6000B5FBBD4B48213380142369702B702A00DC
:100B7000123B3021009720000DF0A8FB2C210C2205
:100B8000B64B2970338004316A7002232A00009723
:100B900020000DF09BFB33227820B14B2A7033806C
:100BA0002A00687002233021009720000DF08EFB90
:100BB000AC4B332233803A236A702B702A00383BC7
:100BC0003021009720000DF081FBA74B2A003380D5
:100BD0003B232B70C0336B703021F93B0097200012
:100BE0000DF074FB3E232A0033802B706F700223BC
:100BF0003021009720000DF069FB432129705946F0
:100C00009A4B2A003380200069700223302100971C
:100C10000DF05CFB964B2A00338016232B70063BAD
:100C20006B7030210E3B009720000DF04FFB914B75
:100C30002A0033804A232B7037336B7030217F3B7F
:100C4000009720000DF042FB8B4B9921338021232C
:100C500069702B702A001F3B3021009720000DF097
:100C600035FB24214020854B297033802A00687091
:100C700002233021009720000DF028FB804B382103
:100C80003380252369702B702A00233B3021009785
:100C900020000DF01BFB262182207A4B2970338027
:100CA0002A00687002233021009720000DF00EFB0F
:100CB0005C22022332802A706F702A003021009754
:100CC00020000DF003FB63232A0033802B706F702C
:100CD00002233021009720000DF0F8FA6A4B3F21E3
:100CE0003380462369702B702A00443B0F390097EC
:100CF00020000DF0EBFA654B3C2033800C2368702C
:100D00002B702A000A3B3021009720000DF0DEFAFC
:100D10005F4B70203380612368702B7080462A00FF
:100D20005F3B3021009720000DF0D0FA594B802115
:100D30003380622369702B702A00603B5039009722
:100D400020000DF0C3FA7C2028700520524B2A00A9
:100D50003380302168700223009720000DF0B6FA2E
:100D60004E4B80213380202369702B702A001E3B5C
:100D70005039009720000DF0A9FA28202870302063
:100D8000474B2A00338030216870022300972000EF
:100D90000DF09CFA6C232A0033802B706F700223B5
:100DA0003021009720000DF091FA6D213D4A297005
:100DB00013313280022369702A00503900972000D5
:100DC0000DF084FA6E232A0033802B706F7002239B
:100DD0003021009720000DF079FA40469C232870BE
:100DE00048469B0033802A00687002233021009718
:100DF00020000DF06BFA2C4B2A00338071232B70EE
:100E000023336B703021923B009720000DF05EFA87
:100E1000264BC1203380732368702B702A00022375
:100E20003021009720000DF051FA214B3D203380F6
:100E3000342328706B703DE0FC170020A086010071
:100E40002EDFFFFFFF0100003C320000090200001E
:100E50000428000013E5FFFF144800002C0C0000DC
:100E6000337800003A3300003BFBFFFF43110000E2
:100E7000161000004A81FFFF2199FFFF2440000067
:100E8000253800002682FFFF463F00000C3C000092
:100E9000617000006280FFFF7C0500002080FFFF82
:100EA000283000006D80FFFF7194FFFF73C1FFFFCA
:100EB0003D3400002A00323B3021009720000DF025
:100EC00005FAFE48572230805A206A7028702A009E
:100ED00002233021009720000DF0F8F912232A0098
:100EE00033802B706F7002233021009720000DF0AB
:100EF000EDF9112333805B466F702B702A000223BB
:100F00003021009720000DF0E1F9ED4B2A003380ED
:100F100017232B705B4630216B7020000223009753
:100F20000DF0D4F9E74B75213380182369702B70CD
:100F30002A0002234539009720000DF0C7F91A2333
:100F40005146FF333380013BFF3B2B7069702A0011
:100F5000173B2F31009720000DF0B8F9DA4B97219D
:100F600033801A238B462B7069702A00183B67392F
:100F7000009720000DF0AAF932223621D34B2A70B7
:100F800033802A00697002233021009720000DF081
:100F90009DF9CF4B2A00338003232B700C336B70E9
:100FA00030210D3B009720000DF090F93720C94902
:100FB00028708046093031802A0068700223302171
:100FC000009720000DF082F94F21BB20C24B297001
:100FD00033802A00687002231F39009720000DF02B
:100FE00075F950219C20BD4B297033802A00687010
:100FF00002232039009720000DF068F9AF485722EE
:1010000030805A206A7028702A000223302100970D
:1010100020000DF05BF9B24A802132806D226970A8
:101020002A7002232A005039009720000DF04EF953
:101030006D222A703822AB4B3021338020006A7039
:1010400002232A0000970DF041F9A74B4A4633804E
:1010500039236A702B702A00373B3021009720001B
:101060000DF034F9A14B2A00338035232B70533314
:101070006B703021863B009720000DF027F99C4BC8
:101080002A00338022232B70183B6B703021083BE1
:10109000009720000DF01AF98E4A40203280424617
:1010A00068702A7002232A003021009720000DF07A
:1010B0000DF92320232330802B706F702A00022328
:1010C0003021009720000DF001F934222A70A0226F
:1010D000884B3021338020006A7002232A00009759
:1010E0000DF0F4F836222A701A22834B3021338017
:1010F00020006A7002232A0000970DF0E7F84A46A4
:1011000006207E4B2870338030216A7002232A002B
:10111000009720000DF0DAF8794BC02033800723C8
:1011200068702B702A00053B3021009720000DF0DD
:10113000CDF8744BB72233800D236A702B702A00D0
:101140000B3B3021009720000DF0C0F80E228723C2
:1011500090462A7052465B0033800D3B6A70FF3B1D
:101160002A003021009720000DF0B0F84C22924662
:10117000328052466F702A7002232A003021009775
:1011800020000DF0A3F8FF232A0033802B706F702E
:10119000FD3B3021009720000DF098F8E5227F21DB
:1011A000594B2A7033802A00697002234F39009707
:1011B00020000DF08BF8554BC0203380F923687068
:1011C0002B702A00F73B3021009720000DF07EF8AD
:1011D0004F4B2A00338041232B701D3B6B70302115
:1011E000223B009720000DF071F8A7235B013380AC
:1011F000E021142329706B702A000223B039009774
:1012000020000DF063F88A235B4233800133FF3303
:101210002B7089336B702A00022330210097200045
:101220000DF054F83320A0223A4B2870338030213F
:101230006A7002232A00009720000DF047F8364B11
:101240004222338020232A706B702A001E3B3021FB
:10125000009720000DF03AF843222A7018222F4BF5
:101260003021338020006A7002232A0000970DF09D
:101270002DF85246022332802A706F702A003021E6
:10128000009720000DF022F8254B2A003380872399
:101290002B7049336B703021CE3B009720000DF04E
:1012A00015F8204B3021338088262E703F266E7033
:1012B00003AD2A0002230097200035E05A570000B2
:1012C00017110000187500001A97FFFF3236000052
:1012D000030F0000374000004FBBFFFF509CFFFF93
:1012E0006D80FFFF6D380000390200003588FFFF78
:1012F000220A000034A0FFFF361A00000602000098
:1013000007C0FFFF0DB7FFFFE57F0000F9C0FFFF3B
:101310004124000033A0FFFF4220000043180000DA
:1013200087D0FFFF883F00000CF0D0FFD722FE4B94
:1013300002AE2A709246D43A338030216A7002237A
:101340002A00009720000CF0C1FFF84B10223380D8
:10135000D9236A702B702A00D73B302100972000D8
:101360000CF0B4FFD322F24B2A70513A3380302173
:101370006A7002232A00009720000CF0A7FFED4BB3
:1013800008223380C8236A702B702A000223302180
:10139000009720000CF09AFFE74B80213380C9238F
:1013A00069702B702A0002235039009720000CF03E
:1013B0008DFF7D2399467D2333804B466F702B70C4
:1013C0002A0002233021009720000CF07FFFDF234A
:1013D0009B0033807C20032328706B702A00013B24
:1013E0003021009720000CF071FFD44B4A46338027
:1013F00048232A706B702A000223302100972000B6
:101400000CF064FF7C200822CD4B28703380302103
:101410006A7002232A00009720000CF057FFC94B86
:101420002A0033804B462B70202330216B70200024
:10143000022300970CF04AFFC34B2A0033804B462F
:101440002B70102330216B702000022300970CF0CA
:101450003DFFBE4B2A0033804B462B704346302164
:101460006B7020000C3B00970CF030FF90232A009B
:1014700033802B706F708E3B3021009720000CF072
:1014800025FF912291462A704246B14B302133808C
:1014900020006A7002232A0000970CF017FF4A46CA
:1014A000AC4B2A70773A338030216A7002232A00CD
:1014B000009720000CF00AFFA74B4A4633803123E7
:1014C0002A706B702A002F3B3021009720000CF00F
:1014D000FDFE4A465A20A14B2A7033802A006870CC
:1014E00002233021009720000CF0F0FE9C4B4A466E
:1014F000338069232A706B702A00673B3021009784
:1015000020000CF0E3FE4A46964B2A701C3A3380CA
:1015100030216A7002232A00009720000CF0D6FECA
:10152000914B4A4633807E232A706B702A007C3BA5
:101530003021009720000CF0C9FE8C4B4A463380C6
:1015400088232A706B702A00863B30210097200088
:101550000CF0BCFE864B4A4633808F232A706B709A
:101560002A008D3B3021009720000CF0AFFE814B0C
:101570004A46338096232A706B702A00943B3021B0
:10158000009720000CF0A2FE7B4B4A463380A32339
:101590002A706B702A00A13B3021009720000CF0CC
:1015A00095FE764B4A463380AF232A706B702A0033
:1015B000AD3B3021009720000CF088FE4A46704B6E
:1015C0002A703332338030216A7002232A00009758
:1015D00020000CF07BFE4A462A705246694B3021AF
:1015E000338020006A7002232A0000970CF06EFE00
:1015F000654B4A463380E8232A706B702A00E63B2D
:101600003021009720000CF061FE4A4620205F4BFD
:101610002A7033802A00687002233021009720004E
:101620000CF054FE9222022332802A706F702A003E
:101630003021009720000CF049FE932206209046AE
:10164000534B2A7033802A006870022330210097A0
:1016500020000CF03BFE4F4B42463380E3232A70C0
:101660006B702A00E13B3021009720000CF02EFE29
:10167000494A02233280914642462A70913A6A7062
:1016800030212A00009720000CF020FE4A463280CC
:1016900042462A70913A6A7002232A00302100974C
:1016A00020000CF013FE4246022332802A706F7035
:1016B0002A003021009720000CF008FE424604204A
:1016C000364B2A7033802A0068700223302100973D
:1016D00020000CF0FBFD4246022332802A706F701E
:1016E0002A003021009720000CF0F0FD4246032133
:1016F0002B4B2A7033802A00697002232D3100970A
:1017000020000CF0E3FD4246022332802A706F7005
:101710002A003021009720000CF0D8FD4246022319
:1017200032802A706F703DE0D7030000D9100000AE
:10173000D382FFFFC8080000C980FFFF7D4800007A
:101740007C0800007D2000007D1000007D0E000060
:10175000910E0000911A000091310000915A000092
:101760009169000091750000917E00009188FFFF53
:10177000918FFFFF9196FFFF91A3FFFF91AFFFFFB6
:1017800091C4FFFF91D7FFFF91E8FFFF9120000078
:101790009306000093E3FFFF930200009304000010
:1017A000930300002A003021009720000CF08EFDEA
:1017B0004246022332802A706F702A00302100973F
:1017C00020000CF083FD4246022332802A706F70A5
:1017D0002A003021009720000CF078FD42460223B9
:1017E00032802A706F702A003021009720000CF0A0
:1017F0006DFD4246022332802A706F702A0030212C
:10180000009720000CF062FD4246022332802A70CD
:101810006F702A003021009720000CF057FD9623AE
:101820002A0033802B706F70943B3021009720008A
:101830000CF04CFD5A46FE4B2A708F3A3380302113
:101840006A7002232A00009720000CF03FFDF94B3C
:101850005A46338019232A706B702A0002233021E4
:10186000009720000CF032FDF34B022233809846A3
:101870005B466A702B702A000223302100972000FB
:101880000CF024FDED4B0C2133805B4669702B700E
:101890002A0002232431009720000CF017FDE84BAA
:1018A000242233805B466A702B702A000223302189
:1018B000009720000CF00AFDE24B302033805B469D
:1018C00068702B702A0002233021009720000CF052
:1018D000FDFCDD4B2A0033805B462B706F3B6B7049
:1018E00030210223009720000CF0F0FCD74B2A0097
:1018F00033805B462B70713B6B7030210223009765
:1019000020000CF0E3FC4346022233805B466A7001
:101910002B702A0002233021009720000CF0D6FC07
:10192000CB4B2A0033805B462B7001336B70302128
:101930000223009720000CF0C9FCC64B80213380A5
:101940005B4669702B702A000223503900972000F3
:101950000CF0BCFC5B462A0033802B706F70953B0B
:101960003021009720000CF0B1FC5B462A00338048
:101970002B706F70953B3021009720000CF0A6FC77
:10198000B54B2A003380C3232B702C336B7030216E
:10199000ED3B009720000CF099FCFF232A003380D8
:1019A0002B706F7002233021009720000CF08EFC0A
:1019B000AA4B2A003380BA232B7022336B7030215C
:1019C000DA3B009720000CF081FCA54B0822338005
:1019D000BB236A702B702A0002233021009720005D
:1019E0000CF074FC9F4B24213380B62369702B705C
:1019F0002A0002230C31009720000CF067FC9A4B60
:101A000033203380B82368702B702A0002233021E2
:101A1000009720000CF05AFC944BB722338020230F
:101A20002A706B702A0002233021009720000CF0EE
:101A30004DFC8F4B30203380B92368702B702A0007
:101A400002233021009720000CF040FC894B2A0033
:101A50003380B3232B70013398466B703021B23B37
:101A6000009720000CF032FC834B2A003380434661
:101A70002B7016336B703021C83B009720000CF0A0
:101A800025FC7E4B43213380B52369702B702A00DF
:101A900002231339009720000CF018FC784B5C22CD
:101AA0003380B0236A702B702A0002233021009704
:101AB00020000CF00BFC734B4F213380B123697075
:101AC0002B702A0002231F39009720000CF0FEFB28
:101AD0006D4B06213380B22369702B702A00B03B16
:101AE0003021009720000CF0F1FBC7232A0033803F
:101AF0002B706F70C53B3021009720000CF0E6FB87
:101B0000624B51213380C62369702B702A00C43B7D
:101B10003021009720000CF0D9FB5D4B1121338060
:101B2000C52369702B702A00C33B30210097200029
:101B30000CF0CCFBC42129709C21564B2A00338029
:101B4000200069700223302100970CF0BFFBBF23F7
:101B50002A0033802B706F70BD3B3021009720002E
:101B60000CF0B4FB4C4B2A003380BC232B70583B49
:101B70006B703021623B009720000CF0A7FBA6237E
:101B80002A0033802B706F70A43B30210097200017
:101B90000CF09CFBA721414B884633801E23297003
:101BA0006B702A001C3B7739009720000CF08EFBED
:101BB0003B4B414633806B2329706B702A00693B95
:101BC0007739009720000CF081FB364B414633807B
:101BD000472329706B702A00453B77390097200016
:101BE0000CF074FB3049332031808A4641466870DE
:101BF00029702A0002233021009720000CF066FB98
:101C000041462A00318029706F700223773900978E
:101C100020000CF05BFB25492A00318089464146B3
:101C200029708439697002233021009720003FE039
:101C3000970800009719000097020000970C000019
:101C40009724000097300000972800009726000096
:101C50009798FFFF9780FFFFC3EFFFFFBADCFFFFFE
:101C6000BB080000B6240000B8330000B720000015
:101C7000B9300000B3B4FFFFB4CAFFFFB5430000A2
:101C8000B05C0000B14F0000B2060000C651000079
:101C9000C5110000C49CFFFFBC640000A71E00002B
:101CA000A76B0000A7470000A7330000A723000090
:101CB0000CF00CFB4146FE4B2970793933802A0029
:101CC000697002233021009720000CF0FFFAF94BD5
:101CD00041463380852329706B702A00833B773916
:101CE000009720000CF0F2FAF349422031808B4635
:101CF0004146687029702A00022330210097200095
:101D00000CF0E4FA51463320318041466870297066
:101D10002A0002233021009720000CF0D7FA414618
:101D20002A00318029706F700223773900972000D4
:101D30000CF0CCFA494631804146297084396970EB
:101D40002A0002233021009720000CF0BFFADB4B61
:101D5000414633801B2329706B702A00193B773969
:101D6000009720000CF0B2FAD54B41463380742323
:101D700029706B702A00723B7739009720000CF0B5
:101D8000A5FA5946422031804146687029702A00E0
:101D900002233021009720000CF098FA514633209E
:101DA00031804146687029702A00022377390097F4
:101DB00020000CF08BFA40462A00308028706F70AB
:101DC00002233021009720000CF080FA484623219E
:101DD00030804046697028702A0002233021009725
:101DE00020000CF073FAB748C8213080C020697019
:101DF00028702A0002233021009720000CF066FA98
:101E0000B14996203180C121687029702A000223CF
:101E10003021009720000CF059FA8C232A003380DF
:101E20002B706F708A3B3021009720000CF04EFA27
:101E3000A6493D23318086216B7029702A00022338
:101E40005639009720000CF041FA5021A04B297020
:101E500042313380994669702A0002236239009723
:101E600020000CF033FA9B4B2A00338051232B7057
:101E7000902330216B702000022300970CF026FA8B
:101E8000954B2C213380522369702B702A0002233A
:101E90000431009720000CF019FA53212A003180F8
:101EA00029706F7002232339009720000CF00EFA7E
:101EB00054232A0033802B706F70523B30210097DF
:101EC00020000CF003FA854A8823328055226B707B
:101ED0002A70863B2A003021009720000CF0F6F98A
:101EE0005A2050217E4A28703280924669702A001A
:101EF00002232039009720000CF0E8F95B233C21F5
:101F0000784A2B7032809B4669702A0002230C3974
:101F1000009720000CF0DAF95C22022332802A704C
:101F20006F702A003021009720000CF0CFF9D322E7
:101F300004206D4B2A7033802A0068700223302100
:101F4000009720000CF0C2F97F232A0033802B7009
:101F50006F7002233021009720000CF0B7F9DA22CD
:101F60000223328090462A706F702A003021009739
:101F700020000CF0ABF95D4BE52233801F232A7063
:101F80006B702A001D3B3021009720000CF09EF959
:101F9000574B03AD3380E1232B707A3B6B702A00E3
:101FA000653B3021009720000CF090F9E02102AE53
:101FB000318029706F7002232A00B0390097200009
:101FC0000CF084F94B4B2A003380DD232B705E3BF1
:101FD0006B7030217D3B009720000CF077F90522D3
:101FE000022332802A706F702A003021009720006F
:101FF0000CF06CF9FF232A0033802B706F70FD3BCF
:102000003021009720000CF061F99C22E02104208F
:10201000D20032802970687002232A00B0390097FC
:1020200020000CF053F92748C0223080C8202A70C5
:10203000687002232A003021009720000CF046F936
:10204000214802233080C120287096202A00687021
:102050003021009720000CF039F91C480223308011
:10206000862028703D202A006870302100972000CB
:102070000CF02CF95021484629704231308002235F
:1020800069702A003021009720000CF01FF91149D7
:102090009020318051216870297002232A0030215C
:1020A000009720000CF012F952222C2024E0C046A8
:1020B000A72E0000A785FFFFA7420000A71B000076
:1020C000A7740000C0C8FFFFC196FFFF863D000057
:1020D0005092FFFF5190FFFF522C00005588FFFFE8
:1020E0005A5000005B3C0000D3040000E51F0000D4
:1020F000E1670000DD7F0000D4492A7031800223AF
:1021000068702A003021009720000CF0DFF853217E
:102110000223318029706F702A003021009720003F
:102120000CF0D4F854232A0033802B706F70523B8C
:102130003021009720000CF0C9F8C5498823318070
:1021400055216B70297002232A003021009720004E
:102150000CF0BCF857239946572333804B466F70D9
:102160002B702A0002233021009720000CF0AEF8DB
:1021700053465A20502133802870697002232A0068
:102180002039009720000CF0A1F85B463C21B14AB1
:102190002B703280593B69702A0030210097200053
:1021A0000CF094F85C22022332802A706F702A00AF
:1021B0003021009720000CF089F8D3210420A64A92
:1021C00029703280022368702A00A339009720000A
:1021D0000CF07CF8E0210223318029706F702A0016
:1021E000B039009720000CF071F8FF232A003380EB
:1021F0002B706F70FD3B3021009720000CF066F8CB
:1022000005232A0033802B706F70033B3021009729
:1022100020000CF05BF8914A02233280924642463D
:102220002A70D23A6A7030212A00009720000CF000
:102230004DF85246328042462A70D23A6A700223E2
:102240002A003021009720000CF040F898232A0043
:1022500033802B706F70963B3021009720000CF07C
:1022600035F899232A0033802B706F70973B30210B
:10227000009720000CF02AF80022378090462A7040
:102280006A7002232A003021009720000CF01EF80B
:10229000FF2333802B7043462A006B7030210223CA
:1022A000009720000CF012F89C23E0210420DB00B2
:1022B00033802970687002232A00B039009720000B
:1022C0000CF004F8C0222A70C822654B30213380FC
:1022D00020006A7002232A0000970BF0F7FF614B81
:1022E00096223380C1236A702B702A00BF3B3021B5
:1022F000009720000BF0EAFF5B4B3D2033808623E4
:1023000068702B702A0002233021009720000BF008
:10231000DDFF564B50213380892329706B702A00D2
:10232000873B2039009720000BF0D0FF51219020EF
:102330004F4B297033802A0068700223213900979F
:1023400020000BF0C3FF41492C20318052216870DE
:10235000297002232A002239009720000BF0B6FFD3
:102360005322404632802A70687002232A003021AE
:10237000009720000BF0AAFF5422434632802A70B7
:102380006B702A0002233021009720000BF09EFF83
:102390002F49022331805521297088212A00697034
:1023A0002000302100970BF091FF572131804946E2
:1023B0006F70297002232A003021009720000BF053
:1023C00085FF5A202B4B2870463033802A006870D6
:1023D00002233021009720000BF078FF5946782027
:1023E000254B297033802A00687002232B3900970F
:1023F00020000BF06BFF5C232A0033802B706F7082
:102400005A3B3021009720000BF060FFD3200222BE
:102410001A4B2870338030216A7002232A000097FB
:1024200020000BF053FFE0232A0033802B706F70E5
:1024300002230097302120000BF048FF05B03CBC80
:1024400090469946A246AB46F0BDC046522C0000CD
:102450005588FFFF5B3C0000D3040000DA08000051
:10246000C0C8FFFFC196FFFF863D00005089FFFFF7
:102470005190FFFF5AA0FFFF5B780000D3020000DD
:10248000FD4B02AF00253B8093210323312203AE95
:10249000B97032707370B1703200009557392000F6
:1024A0000BF014FF83231B013B8082203021082383
:1024B000B87031707370B07032000095053B0C310C
:1024C00020000BF003FF7F2230211720EB4BBA7066
:1024D0003B8031707070B2700323320000950C3174
:1024E00020000BF0F3FEFC208246B87030215046ED
:1024F0001822E34B31703B800C317270B0703200A7
:102500000095032320000BF0E1FEC22338221021A6
:10251000DC48BB70388032707170B3703200009547
:10252000BF3B3C2120000BF0D1FEF02036221521CC
:10253000D54BB8703B8032707170B070320000952E
:102540000323273120000BF0C1FE302398463020B2
:1025500043463880BD7033707570B5703200009599
:1025600003233C2120000BF0B1FE4146982331703B
:1025700049465B003B802E3BBD7032007170B570E8
:10258000FF3B00953C2120000BF0A0FE8C21890030
:102590003980414631700221BD708B467170B57033
:1025A0003200009503233A3120000BF08FFE4246A3
:1025B000CC213270032289003980BD7003237270F0
:1025C000B570320000953C2120000BF07FFEF82111
:1025D00042463020B970388032707570B170320068
:1025E00000950323BC3920000BF070FE982342466F
:1025F0005B003B80327048234A46BB703C217270BE
:10260000B37032000095453B20000BF05FFE8C2339
:1026100042469B003B8032705C235A46BB703C2193
:102620007270B37032000095593B20000BF04EFEE3
:10263000CC239B003B805B46BB7043460322337038
:102640005B467270B3703200009501333C2120006C
:102650000BF03CFE8623DB003B800721434604222F
:10266000B97033707270B170320000950323353148
:1026700020000BF02BFEA623DB003B804246B72355
:102680000520BB7032707070B37032000095B43B9F
:102690003C2120000BF01AFEC623DB003B804323C5
:1026A000BB701800434633700623B070737032005D
:1026B000009503233C2120000BF008FEE623DB00FD
:1026C0003B80424637230721BB7032707170B37074
:1026D00032000095343B353120000BF0F7FD4246C7
:1026E0006A4B32703B80112208233C21BB702000D2
:1026F0007270B3703200009503230BF0E7FD644B5A
:1027000010213B804346B97033707170B170320054
:10271000009503232C3120000BF0D8FD5D4B4620A3
:102720003B800C2122233070BB7032007170B3707B
:102730003C210095032320000BF0C8FD0422382023
:102740001521554BBA703B8030707170B270032305
:1027500032000095273120000BF0B8FD3723062109
:1027600033700D234D4AB9703A8020007370B170F8
:10277000320000950A3B36310BF0A8FD484BA022F1
:102780003B800C203723BA7033707070B270032313
:10279000320000953C2120000BF098FD414B362083
:1027A0003B805346BB705B46737053463070B370CA
:1027B00032000095F93B3C2120000BF087FD3A4B9D
:1027C00036203B801221FF233070BB7032007170C5
:1027D000B3703C210095FC3B20000BF077FDC0223C
:1027E00036203421314BBA703B8030707170B2703A
:1027F0000323320000953C2120000BF067FD3620BA
:1028000013212B4BBD703B8030707170B57032005E
:1028100000950323293120000BF058FD254B36206D
:102820003B8005227C233070BB703C217270B370FA
:1028300032000095793B20000BF048FD1E49362000
:102840003980212209213070B97003237270B17070
:1028500032000095333120000BF038FD174B362045
:102860003B802223BD7030707370B57032000095CC
:1028700003233C21200023E0310300003017000037
:10288000301800003810000036150000301100002C
:1028900030100000460C000038150000370D000015
:1028A000370C0000360200003612000036340000FB
:1028B00036130000360500003621000036220000E5
:1028C0000BF004FDFE4B36203B8004224023307089
:1028D000BB703C217270B370320000953D3B20000C
:1028E0000BF0F4FC3620F749307039808A4603201B
:1028F000A7213200B97003237070B17020000095D9
:102900006B390BF0E3FC5046388027203622B87034
:102910000100032032707070B17032000095032303
:102920003C2120000BF0D2FC402321223B80BA70D6
:1029300033707570B2703D3B320000953C21200031
:102940000BF0C4FCEA235A465B013B80BA7059463F
:1029500040231D2233707270B170320000953D3BF0
:102960003A3120000BF0B2FC54208246B870362277
:1029700050463A8032707570B07032000095032373
:102980003C2120000BF0A2FC042236210520CE4B76
:10299000BA703B8031707070B270032332000095C2
:1029A000063120000BF092FCC84B36223B800621FA
:1029B0003F233270BB7032007170B3703C210095C0
:1029C0003C3B20000BF082FC9E235B003B8080217F
:1029D0004B463C20B97030707370B1703200009576
:1029E0000323443920000BF071FC50224F203A8021
:1029F000B87032707570B0703200009503233C21BE
:102A000020000BF063FC50210422B14B31703039AF
:102A10003B80BA7003237170B2701C313200009594
:102A200020000BF053FCAB4B51223B8081207923DB
:102A30003270BB7032007070B3703C210095763BF1
:102A400020000BF043FCA44B51223B808223BD703D
:102A500032707370B570320000957F3B3C212000CE
:102A60000BF034FC9D4A22203A8085235122B87015
:102A700032707370B07032000095823B3C212000B0
:102A80000BF024FC4846B8709720954B51223B80B0
:102A9000707048463270B0703200009503233C21BC
:102AA00020000BF013FCA823484650225B003B801B
:102AB000513BBB7032707070B37032000095FC3BBC
:102AC0003C2120000BF002FC55230A203B805523BB
:102AD000B87033707570B07032000095523B3C2175
:102AE00020000BF0F3FB7F4B04223B805523BD708D
:102AF00033707270B5703200009503233C212000C2
:102B00000BF0E4FB5520784B30703B8005207F2391
:102B10003200BB703C217070B3702000009503231D
:102B20000BF0D4FB714B50223B8080200823327085
:102B3000BB7032007070B3703C210095053B2000E3
:102B40000BF0C4FBE3231B013B8043461822337088
:102B50000E23BA703C217370B270032332000095CB
:102B600020000BF0B3FB46221021614BBD703B806F
:102B700032707170B5703200009503232C31200043
:102B80000BF0A4FB47225B4B32703B801D220523D8
:102B90003C21BB7020007270B37032000095023B84
:102BA0000BF094FB544B06213B8047220823B9705D
:102BB00032707370B17032000095053B36312000E1
:102BC0000BF084FB4D4B10213B803723B9703370E1
:102BD0007170B17032000095343B2C3120000BF045
:102BE00075FB474B36223B8041231800BB700F3BDF
:102BF000737003003270B070320000953E3B3C2190
:102C000020000BF063FB3F4A40233A8037215A46AD
:102C1000BB7031707270B370320000953D3B05316E
:102C200020000BF053FB384A37233A80202136220C
:102C3000BB7032707170B37032000095343B1C3140
:102C400020000BF043FB4A46BA7036222F4B3270FD
:102C50003B8031224B467270B370320000950323E3
:102C60003C2120000BF032FB294B38213B805B4696
:102C7000BB70082373705B463170B37032000095EF
:102C80000133043120000BF021FB38218020214B3F
:102C900031702F393B80B87032007170B0700323EF
:102CA0000095333120000BF011FB4A46BA700A221E
:102CB000194B38213B8072704A4631702EE0C04675
:102CC000360400003603000036050000360600001A
:102CD000502000005181FFFF5182FFFF5185FFFF0F
:102CE0005197FFFF55040000550500005080FFFF7D
:102CF00046100000471D0000470800003710000084
:102D00003632000037020000362000003631000065
:102D10003808000038090000380A0000B2700323A8
:102D200032000095043120000BF0D0FAFE4B382120
:102D30003B800B22E0233170BB7004317270B370A2
:102D400032000095DD3B20000BF0C0FAF74A072067
:102D50003A80914638210E22B87031707270B0708E
:102D6000320000950323043120000BF0AFFAF04A43
:102D700038213A800F20D0223170BA70032370704E
:102D8000B2703C213200009520000BF09FFAE94917
:102D90005020398088461F21BD7030707170B57029
:102DA0003200009503231D3120000BF08FFA5020D4
:102DB0004F213880B97030707570B1703200009555
:102DC00003233C2120000BF081FADB4B51223B8096
:102DD0001E212A233270BB7032007170B3701E3115
:102DE0000095273B20000BF071FA94239B003B8059
:102DF000F8215B465022B97032707370B1703200A6
:102E000000950323BC3920000BF060FA43460120F3
:102E100050221F213B80B87032707170B070320048
:102E2000009503231D3120000BF050FA612343214C
:102E300043223980BB7032707570B37032000095D8
:102E40005E3B073920000BF041FABC4B35213B803B
:102E5000032007238846BB7031707070B370320056
:102E60000095043B3C2120000BF030FA3621FF3165
:102E70003980732341460120BB7031707070B3708C
:102E800032000095703B3C2120000BF01FFA4046B9
:102E900030705846AA4B32003B80B63BFF3BBB70BC
:102EA0003C217070B370200000957D3B0BF00EFA52
:102EB0004146A44831702A393880BD7032007170A3
:102EC000B57003230095313120000BF0FFF99B4BC7
:102ED00007223B8003204346BA7033707070B27093
:102EE0000323320000953C2120000BF0EFF9964BB4
:102EF00011223B8038212423BA7031707370B27074
:102F0000213B320000953C2120000BF0DFF93621F7
:102F1000FF31398042461E210120B9703270707035
:102F2000B1703200009503233C2120000BF0CEF954
:102F3000414631705946824B32003B80B63BFF3BE5
:102F4000BB7020007170B3703C2100957D3B0BF08D
:102F5000BDF97C48414638807F2031702A39B870ED
:102F600032007170B070032300953C2120000BF0FB
:102F7000ADF90C20382131700100744BB8703B80E2
:102F800032007070B07003230095303120000BF0D8
:102F90009DF96F4B38213B800D2080233170BB7031
:102FA00032007070B370043100957D3B20000BF04F
:102FB0008DF94846382138800E2203203170B870D0
:102FC00003237270B07032000095043120000BF0C2
:102FD0007DF95748E823388038210F20BB703170C5
:102FE0007070B37032000095E53B043120000BF0A7
:102FF0006DF95848042238803A20814630702D38C7
:10300000BA7003237070B2703C213200009520002A
:103010000BF05CF950484B4638800E21032033708A
:10302000B87032007170B070032300952E3120000B
:103030000BF04CF9A120494BB8703B803827377012
:103040001827B07077703200009503233C212000D0
:103050000BF03CF9424B02AF3B803720DB230521CC
:1030600003AEBB7030707170B37032000095D83B06
:10307000373120000BF02AF93A4B37213B800A20E8
:1030800081233170BB7032007070B37005310095D0
:10309000032320000BF01AF9334B36223B80A72381
:1030A000BB701800212332707370B070320000952D
:1030B00003233C2120000BF009F99C2350223821E6
:1030C00001205B003B80BA7031707070B2700323D6
:1030D00032000095043120000BF0F8F8CE239B005D
:1030E0003B80382108230320BB7031707070B370AF
:1030F00032000095053B043120000BF0E7F81B4B34
:1031000038213B80272008233170BB70320070705B
:10311000B37004310095053B20000BF0D7F814483C
:103120003821388026E0C046380B0000380E0000F9
:10313000380F0000501F0000511E00003503000032
:1031400035020000350B000038240000380C000068
:10315000380D00003A0D00003A0E0000381800004B
:1031600037050000370A000036210000382700002C
:1031700038100000C02031702839B87032007170EA
:10318000B070032300952C3120000BF09FF88723AB
:10319000052038210422DB003B80B870317072704A
:1031A000B070320000950323043120000BF08EF83C
:1031B000A72338210520DB003B80BD703170707083
:1031C000B570320000950323043120000BF07EF827
:1031D000FE4B05203B80562333702C33B8703200F1
:1031E0007370B0707F3B00953C2120000BF06EF8AF
:1031F000F74B83223B805623BD7033707270B570DD
:1032000032000095533B3C2120000BF05FF8382141
:10321000C72303203170DB0032393B80B8703200A5
:103220007170B07003230095363120000BF04EF81A
:10323000C0203821E723317007220100DB003B80EA
:10324000B87003237270B07032000095843920008A
:103250000BF03CF85622032032708622DD4BB8700A
:103260003B803C217270B070320000950323200037
:103270000BF02CF85620C02130708720D64BB97047
:103280003B8032007070B1700323009584392000B8
:103290000BF01CF8484678233A213880BB70317017
:1032A0007570B37032000095753B023120000BF051
:1032B0000DF8CA4B04223B803A211A23BA703170B0
:1032C0007370B270032332000095023120000AF0BF
:1032D000FDFF3A20C24B30703B8013203023320078
:1032E000BB703C217070B370200000952D3B0AF03C
:1032F000EDFF3A201822BB4BBD703B8030707270DE
:10330000B5703200009503233C2120000AF0DEFF57
:10331000B54B7C223B803A201923BA703070737011
:10332000B270163B320000953C2120000AF0CEFF1F
:10333000AE481222388008233A20BA703070737079
:10334000B2700323320000953C2120000AF0BEFF3A
:103350003A20C021A64A307031383A80B970320024
:103360007070B17003230095843920000AF0AEFF1D
:10337000A04A3A203A800F2230703038BA700323C6
:103380007070B2703C213200009520000AF09EFF60
:103390003A20A02230700B20974BBA703B803C2122
:1033A0007070B27003233200009520000AF08EFF87
:1033B0008621FF23C9003980BB7019000422302305
:1033C00072703370B170320000950323C33920004E
:1033D0000AF07CFF894B07213B800C224346B970E1
:1033E00033707270B17032000095032335312000C4
:1033F0000AF06CFF824B42463B80D0233270283A61
:10340000BB703C217270B370320000950323200022
:103410000AF05CFF4346BD703B8033707570B57039
:103420003200009503233C2120000AF04FFF362292
:1034300035230120FF323A80BD7033707070B57053
:103440003200009503233C2120000AF03FFF6D4B22
:10345000BD703B80352333705B46B57073703200AE
:10346000009501333C2120000AF030FF664B0A2210
:103470003B803523BD7033707270B570320000959B
:1034800003233C2120000AF021FF604835233880C7
:103490000B20BD7033707070B5703200009503233F
:1034A0003C2120000AF012FF594B03203B803523BA
:1034B000BD7033707070B5703200009503233C21ED
:1034C00020000AF003FF534B32003B805B46BB7089
:1034D000503398463370383373705B463C21B37079
:1034E0002000009501330AF0F1FE4B4B04223B8093
:1034F000434633703933BA703C217370B270032382
:103500003200009520000AF0E1FE444B42463B8029
:103510008C2008233270BB7032007070B3703C2175
:103520000095032320000AF0D1FE3D4B42463B802C
:10353000082332703B32BB703C217270B370320092
:103540000095053B20000AF0C1FE3649082339806A
:1035500042468E21BB7032707170B370320000959C
:103560000323523920000AF0B1FE2F4B10213B807B
:10357000434633703D33B97032007370B1708C3B89
:1035800000952C3120000AF0A1FE284A10213A8033
:1035900090234246B97032707370B170320000955A
:1035A0008D3B3C2120000AF091FE214942463980A2
:1035B0009221BD7032707170B57032000095032396
:1035C000563920000AF082FE34E0C0465682FFFFE2
:1035D0005683FFFF5686FFFF5687FFFF3A1A00000B
:1035E0003A1300003A1800003A1900003A080000A7
:1035F0003A0900003A0A00003A0B0000350C0000BE
:10360000350D000035020000350A0000350B0000C2
:1036100035030000528AFFFF528BFFFF528CFFFFE1
:10362000528DFFFF528EFFFF528FFFFF5290FFFF20
:103630005292FFFFFE4A59463A805A469323BA7087
:10364000424673703270B17032000095903B3A314F
:1036500020000AF03BFE4246F64932704232398081
:10366000BD7003237270B570320000953C212000BC
:103670000AF02CFEF049952339805946B97041462D
:10368000317059467370B17032000095923B3A31F7
:1036900020000AF01BFEE949424639809621BD70A0
:1036A00032707170B5703200009503235A392000D2
:1036B0000AF00CFEE24A97213A805A46BA70424616
:1036C00032705A467170B2700323320000955B3934
:1036D00020000AF0FBFDDB4A98213A804246BD708B
:1036E00032707170B5703200009503235C39200090
:1036F0000AF0ECFD5946B97041469920317059469F
:10370000D14A03233A807070B170320000953A318B
:1037100020000AF0DBFDCD499A2339804146BD7077
:1037200031707370B57032000095973B3C212000DA
:103730000AF0CCFD5846B8704046C5493070493053
:103740003980707058463200B070032300953C21D8
:1037500020000AF0BBFDBF48414638809C20BD7068
:1037600031707070B5703200009503233C21200049
:103770000AF0ACFDB8499D2039805946B9704146E0
:10378000317059467070B1703200009503233A31A0
:1037900020000AF09BFDB149BD703980414631706F
:1037A0004C317170B57032000095032362392000EE
:1037B0000AF08CFD5946B9704146A94B31703B80E7
:1037C00059469F23B1707370320000959C3B3A318B
:1037D00020000AF07BFDA3494B4639800F223C2193
:1037E0003370B970373B7270B170320000952000B1
:1037F0000AF06CFD9C4A4B463A801021302233700F
:10380000BA7003237170B2702C3132000095200021
:103810000AF05CFD954B3C213B804B4633701F3BCF
:10382000B97032007370B170183B00953C212000D4
:103830000AF04CFD8E4930223980494631701C39DE
:10384000BA7003237170B2703C21320000952000E1
:103850000AF03CFD8749320039807021B9704F462B
:103860003770293F7770B1700323009534392000F9
:103870000AF02CFD10214B461F207F4E02AF3E80E8
:1038800003AEB97033707070B170320000950323CD
:103890003C2120000AF01AFD784B30223B800B239C
:1038A0003270BB703C217270B37032000095083BDF
:1038B00020000AF00BFD494631705946704BBD702F
:1038C0003B8032007170B570032300953A312000BF
:1038D0000AF0FCFC6B4B49463B8003207D23317092
:1038E000BB7032007070B3703C2100957A3B2000B1
:1038F0000AF0ECFC49460422634BBD703B803170FA
:103900007270B5703200009503233C2120000AF04C
:10391000DDFC49465D4B317026393B80BD7032007D
:103920007170B570032300953C2120000AF0CEFC95
:1039300049467D20564B317025393B80B8703200A6
:103940007170B070032300953C2120000AF0BEFC8A
:10395000494616204F4BBD703B8031707070B5707A
:103960003200009503233C2120000AF0AFFC4946B9
:103970003A2039804231B97030707570B1703200C0
:10398000009503233C2120000AF0A0FC0920082315
:10399000B87002003A2040493070398020007370BE
:1039A000B270053B320000953C210AF08FFC60208C
:1039B0003A49B870398001003A2030700920B1705E
:1039C0007070320000950323243920000AF07EFC39
:1039D00033493A2039800A2207213070B970032315
:1039E0007270B17032000095353120000AF06EFC23
:1039F000D0223A200B232B49BA7039803070737073
:103A0000B2700323320000953C2120000AF05EFCD6
:103A10002548082338803A2030700D20BB703200D2
:103A20007070B3703C210095053B20003EE0C0461D
:103A30005293FFFF5294FFFF5295FFFF5296FFFFF4
:103A40005297FFFF5298FFFF5299FFFF529AFFFFD4
:103A5000529BFFFF529CFFFF529DFFFF529EFFFFB4
:103A6000529FFFFF3A0F00003A1000003A1B00007F
:103A70003A1E00003A1100003A1F000030300000EA
:103A80003A0200003A0300003A0400003A14000031
:103A90003A1500003A1600003A0800003A09000002
:103AA0003A0A00003A0B00003A0D00000AF00EFC42
:103AB000FE48062338803A2030700E20BB7032005A
:103AC0007070B3703C210095033B20000AF0FEFBB0
:103AD000F748320038807020B870010051203070F3
:103AE0009320B1707070032300953C2120000AF0F0
:103AF000EDFB572236232021EE48BA703880337010
:103B00007170B270333B320000953C2120000AF006
:103B1000DDFBE94A37213A80032098223170BA70E0
:103B200003237070B2703C213200009520000AF02F
:103B3000CDFBE2491C20398004223721B870317056
:103B40007270B0703200009503233C2120000AF00F
:103B5000BDFB582104228946D94B317043313B804B
:103B6000BA7003237170B2703C21320000952000BE
:103B70000AF0ACFB4A46C521D24B327042323B8040
:103B8000B97003237270B17032000095893920003A
:103B90000AF09CFBCC488A2338804046BD703070C8
:103BA0007370B57032000095873B3C2120000AF00D
:103BB0008DFBC6488B2138805846B870404630701F
:103BC00058467170B0703200009503234F392000C1
:103BD0000AF07CFBBE4808233880404630703A30FB
:103BE000BB7032007070B3703C210095053B200023
:103BF0000AF06CFBB74810213880404630703B30EB
:103C0000B97032007070B170032300952C31200020
:103C10000AF05CFBB048202138808E224046B97003
:103C200030707270B1703200009503231C31200097
:103C30000AF04CFBA9488F2338802820B8708146B1
:103C40004046307048467370B070320000958C3B2F
:103C50003C2120000AF03AFBA1483022388040463F
:103C600030703E30BA7003237070B2703C21320065
:103C7000009520000AF02AFB9A489221388040469D
:103C8000BD7030707170B5703200009503235639E5
:103C900020000AF01BFB9448BD703880404630700D
:103CA00041307070B5703200009503233C21200034
:103CB0000AF00CFB404694228C4BBD703B80307068
:103CC0007270B5703200009503233C2120000AF089
:103CD000FDFA874B32003B805B46BB704346337036
:103CE000433373705B463C21B37020000095013371
:103CF0000AF0ECFA7F4BBD703B804346337044338F
:103D00007370B5703200009503233C2120000AF047
:103D1000DDFA794B40463B80972108233070BB7019
:103D200032007170B3705B390095032320000AF0F4
:103D3000CDFA724BBD703B8043463370463373708F
:103D4000B5703200009503233C2120000AF0BEFA32
:103D50006B4B10213B80434633704733B9703200C0
:103D60007370B170032300952C3120000AF0AEFA75
:103D7000644A43463A809A22BD7033707270B570BF
:103D80003200009503233C2120000AF09FFA5E4A8E
:103D900020213A8043469B22B97033707270B17013
:103DA0003200009503231C3120000AF08FFA574A95
:103DB000BD703A80424632704A327270B57032003D
:103DC000009503233C2120000AF080FA504A9D20F0
:103DD0003A804A46BA70424632704A467070B270B3
:103DE0000323320000953C2120000AF06FFA42467E
:103DF000484832704C323880BD7003237270B57001
:103E0000320000953C2120000AF060FA424830223E
:103E10003880404630704D30BA7003237070B270F5
:103E20003C213200009520000AF050FA3B4B4046FE
:103E30003B808223BD7030707370B5703200009586
:103E40007F3B3C2120000AF041FA5320BD7081469F
:103E5000388030707570B5703200009503233C21B6
:103E600020000AF033FA542353202021FF333B80F3
:103E70003070513B5238B97032007070B170FF3BF6
:103E800000951C3120000AF021FA5A465320244B99
:103E9000BD703B8030707270B570320000950323A6
:103EA0003C2120000AF012FA3CE0C0463A0E000025
:103EB0005193FFFF36200000370300003704000055
:103EC000589BFFFF589AFFFF528AFFFF528BFFFF5C
:103ED000528CFFFF528DFFFF528EFFFF528FFFFF6C
:103EE0005290FFFF5292FFFF5293FFFF5294FFFF49
:103EF0005295FFFF5296FFFF5297FFFF5298FFFF28
:103F00005299FFFF529AFFFF529BFFFF529CFFFF07
:103F1000529DFFFF529EFFFF529FFFFF5282FFFF05
:103F20005302000053207C21FE4B307050383B8000
:103F3000B97032007070B1700323009540392000D1
:103F40000AF0C4F953200C21F74BBD703B80307050
:103F50007170B570320000950323303120000AF0F3
:103F6000B5F9F24B0C213B8053200D23B970307012
:103F70007370B170320000950A3B303120000AF0B6
:103F8000A5F9EB4B20213B8053200E23B9703070F4
:103F90007370B170320000950B3B1C3120000AF0A9
:103FA00095F9E44B53203B800F2280233070BB7087
:103FB0003C217270B370320000957D3B20000AF006
:103FC00085F92021B9700800532131701021DA4B96
:103FD00032003B8071700100B070032300951C31EA
:103FE00020000AF073F9D54B53203B801122802327
:103FF0003070BB703C217270B370320000950323A7
:1040000020000AF063F9CE4B20213B805320082387
:10401000B97030707370B1703200009503231C3199
:1040200020000AF053F9C74B53203B80092140235D
:104030003070BB7032007170B37033310095032360
:1040400020000AF043F953200422BF4BBD703B808F
:1040500030707270B5703200009503233C2120004F
:104060000AF034F953203022B84B30704E383B8080
:10407000BA7003237070B2703C21320000952000AA
:104080000AF024F953200621B14BBD703B803070FB
:104090007170B570320000950323363120000AF0AC
:1040A00015F9802053220721AA4BB8703B8032704B
:1040B0007170B070320000950323353120000AF092
:1040C00005F9A54B48463B80142108233070BB708E
:1040D00032007170B37028310095053B20000AF062
:1040E000F5F89E4B20213B8048461523B97030706F
:1040F0007370B17032000095123B1C3120000AF041
:10410000E5F8302248461921954BBA703B80307053
:104110007170B270032332000095233120000AF041
:10412000D5F81021484616228E4BB9703B8030706E
:104130007270B1703200009503232C3120000AF018
:10414000C5F8894B48463B80172108233070BB7067
:1041500032007170B37025310095053B20000AF0E4
:10416000B5F85846B8704846804B30703B383B80B5
:10417000707058463200B070032300953C21200037
:104180000AF0A4F84A460120794B32702D323B8068
:10419000B87003237270B070320000953C2120008B
:1041A0000AF094F848468121724BBD703B80307014
:1041B0007170B570320000950323453920000AF074
:1041C00085F8484682216C4BBD703B803070717021
:1041D000B570320000950323463920000AF076F8C6
:1041E000664B48463B8083224E233070BB703C2197
:1041F0007270B370320000954B3B20000AF066F8F5
:1042000048465F4B307031303B80BD70320070707B
:10421000B570032300953C2120000AF057F8594B54
:104220000F223B8048468523BA7030707370B2709D
:104230000323320000953C2120000AF047F8524B3E
:1042400086223B804B46BD7033707270B570320071
:10425000009503233C2120000AF038F84B4B8722BD
:104260003B804B46BD7033707270B5703200009564
:10427000503B3C2120000AF029F84A460120444BDB
:10428000327035323B80B87003237270B0703200E8
:1042900000953C2120000AF019F8484615213D4BB5
:1042A000307036303B80B97032007070B1700323CB
:1042B0000095273120000AF009F8374BBD703B808C
:1042C0004B46337037337370B5703200009503235B
:1042D0003C21200009F0FAFF304B31223B808B213A
:1042E0004B46BA7033707170B270503B320000951B
:1042F0003C21200009F0EAFF4946294B3170393151
:104300003B80BD7032007170B57003230095503949
:10431000200009F0DBFF4846224B30703A303B80EA
:1043200042E0C04653030000530C0000530D000050
:10433000530E0000530F00005310000053110000F3
:104340005308000053090000530400005305000007
:1043500053060000530700005314000053150000DB
:1043600053190000531600005317000053180000A3
:104370005380FFFF5381FFFF5382FFFF5383FFFFF3
:104380005384FFFF5385FFFF5386FFFF5387FFFFD3
:104390005388FFFF5389FFFF538AFFFF538BFFFFB3
:1043A000538CFFFF538DFFFFBD7032007070B570EE
:1043B000032300953C21200009F088FF48468E2108
:1043C000FE4BBD703B8030707170B570320000954F
:1043D00003235239200009F079FF4A460F20F84B99
:1043E00032703C323B80B87003237270B070320080
:1043F00000953C21200009F069FF4846F14B3070E0
:104400003D303B80BD7032007070B5700323009565
:104410003C21200009F05AFFAB2248461100EA4B2C
:10442000BA701A3A3B8030707270B17032000095E9
:1044300003236F39200009F049FF48469221E34BDE
:10444000BD703B8030707170B570320000950323F1
:104450005639200009F03AFF4846A222DC4B307062
:1044600040303B80BA7003237070B2703C21320040
:104470000095200009F02AFFD64B48463B800823D0
:1044800030704130BB7032007070B3703C210095C9
:10449000053B200009F01AFFCF4B50463B80142308
:1044A00030702C30BB7032007070B3703C210095BE
:1044B000113B200009F00AFFC84B50463B80812188
:1044C00021233070BB7032007170B37036260095B6
:1044D0001E3B3C21200009F0F9FEC14BBE703B8021
:1044E0005746330003AE37702E377770B370320003
:1044F0000095333B3C21200009F0E8FEB94B02AFA8
:104500003B80514657238322BB7031707270B37069
:104510003200009503233C21200009F0D7FEB24B66
:1045200051463B80842265233170BB703C21727000
:10453000B37032000095623B200009F0C7FEAB4B20
:1045400051463B80852271233170BB703C217270D3
:10455000B370320000956E3B200009F0B7FEA44B0B
:1045600050463B8086217D233070BB7032007170D5
:10457000B3704A3900950323200009F0A7FE9D4B34
:1045800052463B8087233270BB7032007370B37029
:104590003C2100950323200009F098FE964B5246DB
:1045A0003B80912332703432BB703C217270B37007
:1045B000320000950323200009F088FE8F4B5246FD
:1045C0003B809A2332703532BB703C217270B370DD
:1045D00032000095973B200009F078FE884BAA2214
:1045E0003B80534633703633BA703C217370B270DF
:1045F000032332000095200009F068FE814B320051
:104600003B80B823BB709946534633703733737081
:104610004B463C21B37020000095B53B09F056FE97
:10462000794B52463B808C21CD233270BB703200D7
:104630007170B37050390095CA3B200009F046FEF6
:10464000724B52463B80DD2332703932BB703C21C5
:104650007270B37032000095DA3B200009F036FE2C
:104660006B4B52463B808E20EA233270BB70320087
:104670007070B3703C210095E73B200009F026FEE6
:1046800052461021634B32703B323B80B97003239A
:104690007270B170320000952C31200009F016FEC6
:1046A0005D4B52463B80902005233270BB70320038
:1046B0007070B3703C210095023B200009F006FEAB
:1046C00050469122554BBD703B8030707270B57072
:1046D0003200009503233C21200009F0F7FD504BE8
:1046E00050463B80922204233070BB703C21727094
:1046F000B37032000095013B200009F0E7FD494B03
:1047000020213B8050469323B97030707370B17094
:1047100032000095903B1C31200009F0D7FD504637
:104720000322414B307040303B80BA7003237070DD
:10473000B2703C2132000095200009F0C7FD6021D5
:1047400050469522394BB9703B8030707270B17011
:104750003200009503232439200009F0B7FD5846A4
:10476000B8705046324B30703B8058469623B0703C
:10477000737032000095933B3C21200009F0A6FDA8
:104780004846B8705046972130704846294B320051
:104790003B807170B070032300955B39200009F0F5
:1047A00095FD5846B8705046234B307044303B80DE
:1047B000707058463200B07040E0C046538EFFFF24
:1047C000538FFFFF5390FFFF5391FFFF5392FFFF63
:1047D0005393FFFF5394FFFF5480FFFF5481FFFF6B
:1047E0005482FFFF5483FFFF5484FFFF5485FFFF73
:1047F0005486FFFF5487FFFF5488FFFF5489FFFF53
:10480000548AFFFF548BFFFF548CFFFF548DFFFF32
:10481000548EFFFF548FFFFF5490FFFF5491FFFF12
:104820005492FFFF5493FFFF5494FFFF5495FFFFF2
:104830005496FFFF5497FFFF5498FFFF0323009502
:104840003C21200009F042FDFE4B86213B80504672
:104850009923B97030707370B17032000095963B37
:104860004A39200009F032FD5846B8705046F64BE0
:1048700030703B8058469A23B070737032000095B8
:10488000973B3C21200009F021FDF04B50463B8036
:104890009B215B233070BB7032007170B3705F3945
:1048A0000095583B200009F011FD5846B87050465D
:1048B000E74B30703B8058469C23B07073703200D9
:1048C0000095993B3C21200009F000FDE14B50464A
:1048D0003B809D213B233070BB7032007170B37000
:1048E00061390095383B200009F0F0FC5846B8705B
:1048F0005046D94B30703B8058469E23B070737041
:10490000320000959B3B3C21200009F0DFFCD34B9B
:104910001C213B8050469F23B97030707370B1707A
:10492000320000959C3B2031200009F0CFFC584616
:10493000B8705046CA4B30703B805846A023B070C8
:104940007370320000959D3B3C21200009F0BEFCB5
:10495000C44B50463B80A12204233070BB703C21E5
:104960007270B37032000095013B200009F0AEFC7C
:10497000BD4B01223B805046A223BA703070737049
:10498000B2709F3B320000953C21200009F09EFC54
:10499000B64B50463B80A322ED233070BB703C21C8
:1049A0007270B37032000095EA3B200009F08EFC73
:1049B000AF4B01223B805046A423BA703070737015
:1049C000B270A13B320000953C21200009F07EFC32
:1049D0005046C521A74B307051303B80B97081469D
:1049E0007070B1703200009503238939200009F0FE
:1049F0006DFCA14B01223B805046A623BA7030705B
:104A00007370B270A33B320000953C21200009F086
:104A10005DFC4846B8705046984B30703B80484625
:104A2000A723B070737032000095A43B3C21200096
:104A300009F04CFC924B01223B805046A823BA70EF
:104A400030707370B270A53B320000953C2120009D
:104A500009F03CFC8B4B50463B80A9226C23307004
:104A6000BB703C217270B37032000095693B20002E
:104A700009F02CFC844B01223B805046AA23BA70DB
:104A800030707370B270A73B320000953C2120005B
:104A900009F01CFC7D4B41203B805346337057335B
:104AA000B87032007370B070032300953C21200071
:104AB00009F00CFC764B01223B805046AC23BA70C7
:104AC00030707370B270A93B320000953C21200019
:104AD00009F0FCFB6F4B20223B805046AD23BA709F
:104AE00030707370B270AA3B320000953C212000F8
:104AF00009F0ECFB684B50463B80AE23BD70307034
:104B00007370B57032000095AB3B3C21200009F07A
:104B1000DDFB624B16203B80534633705B33B8702D
:104B200032007370B070AC3B00953C21200009F05E
:104B3000CDFB342006225A4BBD703B803070727022
:104B4000B5703200009503233C21200009F0BEFB24
:104B5000544B51223B80922104233270BB703200AF
:104B60007170B37056390095013B200009F0AEFB1F
:104B70005122F8214C4B327040323B80B9700323F4
:104B80007270B17032000095BC39200009F09EFBB4
:104B90004648512238809323F0203270B87032009A
:104BA0007370B070032300953C21200009F08EFB48
:104BB0003F4B51223B80942140233270BB70320026
:104BC0007170B370583900953D3B200009F07EFBB1
:104BD000384B51223B809521F0233270BB7032005C
:104BE0007170B37059390095ED3B200009F06EFBF0
:104BF0003D208146304BB8703B80484651228D2382
:104C000032707370B070320000958A3B3C212000F6
:104C100009F05CFB5046294BB8703B80504651224E
:104C20008F2332707370B070320000958C3B3C2142
:104C3000200009F04BFB4846214BB8703B804846AA
:104C400040E0C0465499FFFF549AFFFF549BFFFF7A
:104C5000549CFFFF549DFFFF549EFFFF549FFFFF96
:104C600054A0FFFF54A1FFFF54A2FFFF54A3FFFF76
:104C700054A4FFFF54A5FFFF54A6FFFF54A7FFFF56
:104C800054A8FFFF54A9FFFF54AAFFFF54ABFFFF36
:104C900054ACFFFF54ADFFFF54AEFFFF54AFFFFF16
:104CA000340600005192FFFF5191FFFF5193FFFF27
:104CB0005194FFFF5195FFFF518DFFFF518FFFFF73
:104CC000518EFFFF51228E2332707370B07032000C
:104CD00000958B3B3C21200009F0F8FA50469D4B93
:104CE000B8703B8050465122902332707370B07080
:104CF000320000958D3B3C21200009F0E7FA964BED
:104D0000C0203B8051228B23B87032707370B0701A
:104D10003200009503233C21200009F0D7FA8F4B85
:104D200051223B808C21BD233270BB7032007170E8
:104D3000B37018260095BA3B5039200009F0C6FA26
:104D4000874BBE703B80390003223C20FBF74EFEB0
:104D5000844BBE703B80390003223C20FBF746FEAB
:104D6000814B39003B806E230322BB703C20FBF754
:104D70003DFE7E4B02AE3B8068231C27B3703100A2
:104D800003223C20FBF732FE794BB77033803100B1
:104D900003223C20FBF72AFE5022764FB270378068
:104DA000252731004D3A3C20FBF720FE7248B770B2
:104DB00081463080310003223C20FBF717FE112092
:104DC0006E49B0703180032231003C20FBF70EFEAB
:104DD0006B4B3100338014230322B3703C20FBF76C
:104DE00005FE4846B770674F3080310003223C20F3
:104DF000FBF7FCFD378024273100B77003223C20ED
:104E0000FBF7F4FD8222604BB270338031007F3AB1
:104E10003C20FBF7EBFD7E235C4FB3703780310005
:104E200003223C20FBF7E2FD7223594FB370378019
:104E3000310003223C20FBF7D9FD8020554FB07094
:104E40003780310003223C20FBF7D0FD7020524F09
:104E5000B0703780310003223C20FBF7C7FDD02221
:104E60004E4FB27037804E4F3100CD3A3C20FBF7A9
:104E7000BDFD378040273100B77003223C20FBF78F
:104E8000B5FD484B31003380B77003223C20FBF75F
:104E9000ADFD454B31003380B77003223C20FBF75A
:104EA000A5FD5846414BB0703380310003223A30A3
:104EB000FBF79CFD3E4B3100338007230322B37088
:104EC0003C20FBF793FD10213A4AB170328031004B
:104ED00003223C20FBF78AFDB2233749B3703180AF
:104EE000032231003C20FBF781FD18233349B370C6
:104EF0003180032231003C20FBF778FD304B31003C
:104F00003380B77003223C20FBF770FD2D4B31003E
:104F100033805B460322B3703C20FBF767FD4346BA
:104F20002948B3703080310003223C20FBF75EFD3E
:104F3000264B472133802D2303AAB3701170937041
:104F400057702A3B00953C21200009F0BFF9FDF77E
:104F500075FAC0465190FFFF518BFFFF518CFFFF48
:104F60005187FFFF5188FFFF5189FFFF518AFFFFE3
:104F70005186FFFF5181FFFF5184FFFF5182FFFFE8
:104F80005183FFFF5185FFFF502500003A0F0000BD
:104F90003A1000003A1B00003A1E00003A110000CF
:104FA0003A1F00005583FFFF5584FFFF5580FFFF28
:104FB00036330000370200003703000037040000DA
:104FC000370B0000370D000036200000474000007E
:104FD00070B5204D0123296804000A001032934067
:104FE00062681342FCD10722890061180A61626875
:104FF0001A40FCD10A6162681342FCD1164A0A6168
:1050000062681342FCD107220A6162681A40FCD12F
:105010000A6162681342FCD1104B01200B6100F061
:10502000BBFF296801220B0010339A4063681A42C3
:10503000FCD10723890061180B6163681340FCD120
:105040000B6163681A42FCD1054B01200B6100F033
:10505000A3FF70BDD4590020FEEFFEEFEFFEEFFE80
:10506000EFEFFFEEF0B5CE46474680B53A4987B040
:10507000040008F01FFF0223384D394E286001213B
:105080002000336008F0F8FE0100364806F00CF905
:1050900080232F685B02984602933B000F33FA018E
:1050A0001B031343304A0C20134003932F4B3668E5
:1050B0000593C0239B0204932D4BE5186B1E9D4165
:1050C000AB1D99460125190001F0ECFD49460D2064
:1050D00001F0E8FD49460E2001F0E4FD49460F20AD
:1050E00001F0E0FD4946102001F0DCFD49461120A9
:1050F00001F0D8FD00953100200004230C2208F0B7
:10510000D5FF0095310020000223102208F0CEFFC9
:10511000310020000F230F2208F084FF4346B540E2
:105120003A0031000293200002AB09F003F8236833
:1051300020001D432560FFF74BFF012009F080F997
:105140000C4B1860012009F07BF90B4B186007B07D
:105150000CBC90469946F0BDD8EE0010D059002006
:10516000D4590020CCEE0010FFFFFF9F8C41465029
:105170000000E0AFBC590020C4590020F0B55746EC
:105180004E464546DE46E0B583B001930C9C3B4B52
:105190003B4F0D009A46E1021E68B8426CD03700C2
:1051A0000837384BFF031940192319433943183B7B
:1051B0008C4619009846B140A0230768DB053943A7
:1051C000A7010160F9184346A3409846AB1A9946D7
:1051D0002D4B80249B46019B5F44A400A3423ED9F3
:1051E0002A4C8025A3462A4C5B44A3464C46A4186F
:1051F0000C60341DA40004194C6064468D600C6181
:10520000340001251034A54044682542FCD15C4699
:10521000B6008619346144682C40FCD13461E02426
:10522000A4051443A34644682542FCD15C46862568
:105230003461A0244646ED00E405665180256D04E6
:105240003C682C42FCD1002B0FD08024A400A34644
:105250005446266880245A44A400A342C0D89D081E
:105260005B0007339B460023C0E703B03CBC90467D
:105270009946A246AB46F0BD370092E7D4590020CC
:10528000000020503F7800FF1000005000FEFFFF9C
:1052900007040000F0B557464E464546DE46E0B5E9
:1052A000404D85B00391AA460E992D683E4FCC0221
:1052B0002E1DB84200D008363C4FF6033C4029274B
:1052C0003C433443283FA4463C00AC4006688F4032
:1052D000344304608C010399A026891A0291862127
:1052E000C900A04689468021F6050197464401275A
:1052F00089008B4247D92E4980248B462D495B4437
:105300008B462900083189004118316002998918BB
:1053100071606146B46031613900A940046821437D
:10532000016029003C0010318C402100446821427A
:10533000FCD10724AD0045192C6144682142FCD101
:105340005C462C61EB2424061443A34644682142A6
:10535000FCD159462961A0214C46019DC9050D513A
:105360008024154D6404454429682142FCD1002B5A
:105370000FD0802189008B4651460D6880215A4408
:1053800089008B42B7D89C085B00013B9B460023F9
:10539000B7E7039805B03CBC90469946A246AB4699
:1053A000F0BDC046D4590020000020502F7800FFE7
:1053B00000FEFFFFFF0300001000005070B58026C4
:1053C00000220123164D174C76005108134200D0DD
:1053D000614048080B4200D060404108034200D0C1
:1053E000614048080B4200D060404108034200D0B1
:1053F000614048080B4200D060404108034200D0A1
:10540000614048080B4205D06040013201C5B242FC
:10541000DBD170BD013201C5B242D6D1F9E7C04639
:105420009C2600202083B8EDF0B5D6464F46464670
:10543000564BC0B51D7888B0EDB20400002D05D0E4
:1054400008B01CBC90469946A246F0BD0122162029
:1054500090461A7001F05EFC8023DB039A46D0234D
:1054600052461B065A624A49200008F023FD494B68
:10547000494E1860012120009946356008F0FCFC77
:105480000100464805F010FF4B4637681B6852463E
:10549000994639005346200008F082FD5246534693
:1054A0003900200008F0BEFD3D4B1620E1184B1ED0
:1054B0009941063101F0F6FB0321162001F01AFC98
:1054C0000121162001F006FC80235B020493F823DF
:1054D0005B020593C02310221B0304A968460693B0
:1054E000079505F0E9FC4B464A4602330C3212039D
:1054F000DB0113436946102204A8019305F0DCFC8C
:10550000284B4A460793284B39000693200004ABEA
:1055100008F010FE3B00424610339A4063681A427E
:10552000FCD156223B1D9B00FF321A510123BB4088
:10553000226813432360FFF741FF61231B491C4D81
:105540000B80280009F038FC012008F079FF194B86
:10555000194918603268C3028C4200D008321749DA
:10556000D2030B4019210B4313430C2293430C32FB
:105570001343A022D20594468001114A604410349E
:1055800005604460826003615AE7C046AD5900205F
:1055900000EF0010083F0020DC59002024EF00102D
:1055A0000000E0AF1600100000000C5474540020FE
:1055B000443F0020D8590020000020503F7800FFD1
:1055C0004B05000070B50F4D0A000100280005F0E2
:1055D00073FC0D4C2900200009F0EEFB0B488021E4
:1055E000036849049A010A4B9C46624413680B42C3
:1055F000FCD1A022D205944603689B016344DC637E
:1056000070BDC04674540020443F0020D85900208B
:105610001000005030B5184C0D00A544A524E4003E
:105620006C4402CC01902488039205A822000493C4
:10563000029505F041FC2200104D103201A928000E
:1056400005F03AFC0E4C2900200009F0B5FB0D488E
:105650008021036849049A010B4B9C4662441368FD
:105660000B42FCD1A022D205944603689B016344FF
:10567000DC63064B9D4430BDE4FAFFFF7454002008
:10568000443F0020D8590020100000501C050000A5
:1056900010B50C0008F0E4FE002804D0034B0419F8
:1056A0009C4200D810BD024801F000FF0000042019
:1056B00030EF0010024B9C46614489000160704746
:1056C000400000340021044B044ABFF35F8F02C343
:1056D0009342FAD17047C046000100D0800100D04B
:1056E000044A1078431CDBB2172B00D91023137027
:1056F0007047C0460017002000B5054B83B001007D
:10570000009318221F23034800F03EF803B000BDA9
:1057100040EF001070260020EFF3108072B6034AAD
:105720001368002BFCD0BFF35F8F70472C0100D0B3
:10573000BFF35F8F0022024B1A6080F3108870471E
:105740002C0100D0F8B5EFF3108772B60D4E336818
:10575000002BFCD0BFF35F8F0725CB08C0180123B7
:105760000D40AB401D000478254007D12343037052
:10577000BFF35F8F356087F31088F8BD100001F02C
:1057800095FEC0462C0100D0F8B5CE4647468C4663
:1057900080B5EFF3108972B6214D2C68002CFCD037
:1057A000BFF35F8F9A422CD80721012511408D400D
:1057B000D4080419267835421FD0072188460639B7
:1057C00009E045460F001540AF40D408041926787B
:1057D0003D00374211D001329342F2D201204042C3
:1057E000BFF35F8F00220E4B1A6089F310880028E8
:1057F0000FDB0CBC90469946F8BD35432570100070
:10580000EEE7BFF35F8F00232B6089F31088012040
:1058100040426346002BECD0089801F047FEC0469A
:105820002C0100D0024B18688007C00F7047C0469B
:1058300000C0064083680B4810B58446614462444A
:10584000090112019A18591854684B6801209C42AA
:1058500001D802D00020C0B210BD12680B689A4275
:10586000F9D8F7E7FFFFFF0F0A4B1968EFF3108035
:1058700072B60A68002AFCD0BFF35F8F1B68BFF3C3
:105880005F8F00221A6080F3108840BF0020002143
:105890007047C046283F0020F8B557464E4645465B
:1058A000DE46E0B51F000CAB1D780DAB1B788146C2
:1058B0009A46036816009846002D3BD1987B002835
:1058C00032D042464546440012682418033C12195F
:1058D00051780300A973002900D1E9730021050064
:1058E00091705170117029E0D31814199D702278AD
:1058F000002A00D05A705B46237043465D734B46C6
:105900003200187D3B0000F04DFD041E07D05346C9
:10591000002B04D14B462900186800F0FFFE0E9BB7
:10592000002B44D028001C703CBC90469946A246EF
:10593000AB46F8BD2B006C006419033C1D4A94462D
:105940004A469268634494461B010A9A63449A60EB
:105950000B9A1E605F60DA60434600221B681B19C9
:105960009A705A701A7043465B7B9B46002BC4D0DA
:1059700043462A00986859465B6898475B4642460A
:105980005B005B44033B12680028ADD0D3181419A8
:105990005A46A2701A78002A07D11D705A4643460B
:1059A00028005A73AB45BFD1A9E76270F5E728001C
:1059B000BAE7C046FFFFFF0FF0B5DE464546574643
:1059C0004E46724B8200E0B5D55800238DB00B9047
:1059D0009B4627E0069A079B1100194303D02B69C9
:1059E000002B00D093E02B68DA7B002A07D051000F
:1059F0008A1819688C4649466244033A51704A46EF
:105A0000DA73EA684B469446013B63441A780132E4
:105A10001A705B462B616B68BFF35F8F5A461A6042
:105A200084F3108800F012FC6A68EFF3108472B6F9
:105A30001368002BFCD0BFF35F8F2B689C465B7B09
:105A40009946002B5BD0AA68514B90464B441B01F2
:105A5000984443461A685B6816001F00361A8F4147
:105A6000002F6EDD0B9800F09DFC00220023002724
:105A70000026089209936B68BFF35F8F5A461A603D
:105A800084F31088002E76D0534618024B46390016
:105A90001843B0476A6806900791EFF3108472B616
:105AA0001368002BFCD0BFF35F8F079B002B91DAAC
:105AB0002B69002B97D006980799089A099B121A10
:105AC0008B410898099906920793079A914203D847
:105AD00007D1069A904204D901225242D317069266
